{
    "_format": "hh-sol-artifact-1",
    "contractName": "WavePortal",
    "sourceName": "contracts/WavePortal.sol",
    "abi": [
        {
            "inputs": [],
            "stateMutability": "nonpayable",
            "type": "constructor"
        },
        {
            "inputs": [],
            "name": "getTotalWaves",
            "outputs": [
                {
                    "internalType": "uint256",
                    "name": "",
                    "type": "uint256"
                }
            ],
            "stateMutability": "view",
            "type": "function"
        },
        {
            "inputs": [],
            "name": "getWavePerAddress",
            "outputs": [
                {
                    "internalType": "uint256",
                    "name": "",
                    "type": "uint256"
                }
            ],
            "stateMutability": "view",
            "type": "function"
        },
        {
            "inputs": [],
            "name": "wave",
            "outputs": [],
            "stateMutability": "nonpayable",
            "type": "function"
        },
        {
            "inputs": [
                {
                    "internalType": "address",
                    "name": "",
                    "type": "address"
                }
            ],
            "name": "wavePerAddress",
            "outputs": [
                {
                    "internalType": "uint256",
                    "name": "",
                    "type": "uint256"
                }
            ],
            "stateMutability": "view",
            "type": "function"
        }
    ],
    "bytecode": "0x608060405234801561001057600080fd5b5061003c6040518060600160405280602581526020016108fc6025913961004160201b61029c1760201c565b6101c4565b6100dd816040516024016100559190610142565b6040516020818303038152906040527f41304fac000000000000000000000000000000000000000000000000000000007bffffffffffffffffffffffffffffffffffffffffffffffffffffffff19166020820180517bffffffffffffffffffffffffffffffffffffffffffffffffffffffff83818316178352505050506100e060201b60201c565b50565b60008151905060006a636f6e736f6c652e6c6f679050602083016000808483855afa5050505050565b600061011482610164565b61011e818561016f565b935061012e818560208601610180565b610137816101b3565b840191505092915050565b6000602082019050818103600083015261015c8184610109565b905092915050565b600081519050919050565b600082825260208201905092915050565b60005b8381101561019e578082015181840152602081019050610183565b838111156101ad576000848401525b50505050565b6000601f19601f8301169050919050565b610729806101d36000396000f3fe608060405234801561001057600080fd5b506004361061004c5760003560e01c80636fe15b441461005157806372e354a71461005b5780639a2cdc081461008b5780639ff35b31146100a9575b600080fd5b6100596100c7565b005b610075600480360381019061007091906104ab565b610174565b60405161008291906105ad565b60405180910390f35b61009361018c565b6040516100a091906105ad565b60405180910390f35b6100b16101d7565b6040516100be91906105ad565b60405180910390f35b6000808154809291906100d990610653565b9190505550600160003373ffffffffffffffffffffffffffffffffffffffff1673ffffffffffffffffffffffffffffffffffffffff168152602001908152602001600020600081548092919061012e90610653565b91905055506101726040518060400160405280600c81526020017f257320686173207361766564000000000000000000000000000000000000000081525033610335565b565b60016020528060005260406000206000915090505481565b60006101cf6040518060400160405280601781526020017f5765206861766520256420746f74616c207761766573210000000000000000008152506000546103d1565b600054905090565b60006102576040518060400160405280600c81526020017f596f752077617665642025640000000000000000000000000000000000000000815250600160003373ffffffffffffffffffffffffffffffffffffffff1673ffffffffffffffffffffffffffffffffffffffff168152602001908152602001600020546103d1565b600160003373ffffffffffffffffffffffffffffffffffffffff1673ffffffffffffffffffffffffffffffffffffffff16815260200190815260200160002054905090565b610332816040516024016102b0919061052b565b6040516020818303038152906040527f41304fac000000000000000000000000000000000000000000000000000000007bffffffffffffffffffffffffffffffffffffffffffffffffffffffff19166020820180517bffffffffffffffffffffffffffffffffffffffffffffffffffffffff838183161783525050505061046d565b50565b6103cd828260405160240161034b92919061054d565b6040516020818303038152906040527f319af333000000000000000000000000000000000000000000000000000000007bffffffffffffffffffffffffffffffffffffffffffffffffffffffff19166020820180517bffffffffffffffffffffffffffffffffffffffffffffffffffffffff838183161783525050505061046d565b5050565b61046982826040516024016103e792919061057d565b6040516020818303038152906040527f9710a9d0000000000000000000000000000000000000000000000000000000007bffffffffffffffffffffffffffffffffffffffffffffffffffffffff19166020820180517bffffffffffffffffffffffffffffffffffffffffffffffffffffffff838183161783525050505061046d565b5050565b60008151905060006a636f6e736f6c652e6c6f679050602083016000808483855afa5050505050565b6000813590506104a5816106dc565b92915050565b6000602082840312156104bd57600080fd5b60006104cb84828501610496565b91505092915050565b6104dd816105e4565b82525050565b60006104ee826105c8565b6104f881856105d3565b9350610508818560208601610620565b610511816106cb565b840191505092915050565b61052581610616565b82525050565b6000602082019050818103600083015261054581846104e3565b905092915050565b6000604082019050818103600083015261056781856104e3565b905061057660208301846104d4565b9392505050565b6000604082019050818103600083015261059781856104e3565b90506105a6602083018461051c565b9392505050565b60006020820190506105c2600083018461051c565b92915050565b600081519050919050565b600082825260208201905092915050565b60006105ef826105f6565b9050919050565b600073ffffffffffffffffffffffffffffffffffffffff82169050919050565b6000819050919050565b60005b8381101561063e578082015181840152602081019050610623565b8381111561064d576000848401525b50505050565b600061065e82610616565b91507fffffffffffffffffffffffffffffffffffffffffffffffffffffffffffffffff8214156106915761069061069c565b5b600182019050919050565b7f4e487b7100000000000000000000000000000000000000000000000000000000600052601160045260246000fd5b6000601f19601f8301169050919050565b6106e5816105e4565b81146106f057600080fd5b5056fea2646970667358221220f72ff98963949c8ccff002da31717aa9a6c055fcbfb361f4212f7135a5c891f664736f6c63430008030033596f20796f2c204920616d206120636f6e747261637420616e64204920616d20736d617274",
    "linkReferences": {},
    "deployedLinkReferences": {}
}